{"abi":[{"type":"constructor","inputs":[{"name":"_question","type":"string","internalType":"string"},{"name":"_resolver","type":"address","internalType":"address"},{"name":"_fee","type":"uint256","internalType":"uint256"},{"name":"_duration","type":"uint256","internalType":"uint256"},{"name":"_seedCollateral","type":"uint256","internalType":"uint256"},{"name":"_protocolFeeRecipient","type":"address","internalType":"address"}],"stateMutability":"payable"},{"type":"function","name":"burnPairs","inputs":[{"name":"amount","type":"uint256","internalType":"uint256"}],"outputs":[],"stateMutability":"nonpayable"},{"type":"function","name":"buyNo","inputs":[],"outputs":[],"stateMutability":"payable"},{"type":"function","name":"buyYes","inputs":[],"outputs":[],"stateMutability":"payable"},{"type":"function","name":"endTime","inputs":[],"outputs":[{"name":"","type":"uint256","internalType":"uint256"}],"stateMutability":"view"},{"type":"function","name":"fee","inputs":[],"outputs":[{"name":"","type":"uint256","internalType":"uint256"}],"stateMutability":"view"},{"type":"function","name":"getMarketInfo","inputs":[],"outputs":[{"name":"_question","type":"string","internalType":"string"},{"name":"_resolver","type":"address","internalType":"address"},{"name":"_fee","type":"uint256","internalType":"uint256"},{"name":"_endTime","type":"uint256","internalType":"uint256"},{"name":"_resolved","type":"bool","internalType":"bool"},{"name":"_yesWon","type":"bool","internalType":"bool"},{"name":"_vault","type":"uint256","internalType":"uint256"},{"name":"_reserveYES","type":"uint256","internalType":"uint256"},{"name":"_reserveNO","type":"uint256","internalType":"uint256"}],"stateMutability":"view"},{"type":"function","name":"getUserBalances","inputs":[{"name":"user","type":"address","internalType":"address"}],"outputs":[{"name":"yes","type":"uint256","internalType":"uint256"},{"name":"no","type":"uint256","internalType":"uint256"}],"stateMutability":"view"},{"type":"function","name":"getYesPrice","inputs":[],"outputs":[{"name":"","type":"uint256","internalType":"uint256"}],"stateMutability":"view"},{"type":"function","name":"noBalance","inputs":[{"name":"","type":"address","internalType":"address"}],"outputs":[{"name":"","type":"uint256","internalType":"uint256"}],"stateMutability":"view"},{"type":"function","name":"previewBuyNo","inputs":[{"name":"ethAmount","type":"uint256","internalType":"uint256"}],"outputs":[{"name":"noOut","type":"uint256","internalType":"uint256"}],"stateMutability":"view"},{"type":"function","name":"previewBuyYes","inputs":[{"name":"ethAmount","type":"uint256","internalType":"uint256"}],"outputs":[{"name":"yesOut","type":"uint256","internalType":"uint256"}],"stateMutability":"view"},{"type":"function","name":"protocolFeeRecipient","inputs":[],"outputs":[{"name":"","type":"address","internalType":"address"}],"stateMutability":"view"},{"type":"function","name":"question","inputs":[],"outputs":[{"name":"","type":"string","internalType":"string"}],"stateMutability":"view"},{"type":"function","name":"redeem","inputs":[],"outputs":[],"stateMutability":"nonpayable"},{"type":"function","name":"reserveNO","inputs":[],"outputs":[{"name":"","type":"uint256","internalType":"uint256"}],"stateMutability":"view"},{"type":"function","name":"reserveYES","inputs":[],"outputs":[{"name":"","type":"uint256","internalType":"uint256"}],"stateMutability":"view"},{"type":"function","name":"resolve","inputs":[{"name":"_yesWon","type":"bool","internalType":"bool"}],"outputs":[],"stateMutability":"nonpayable"},{"type":"function","name":"resolved","inputs":[],"outputs":[{"name":"","type":"bool","internalType":"bool"}],"stateMutability":"view"},{"type":"function","name":"resolver","inputs":[],"outputs":[{"name":"","type":"address","internalType":"address"}],"stateMutability":"view"},{"type":"function","name":"swapNoToYes","inputs":[{"name":"noAmount","type":"uint256","internalType":"uint256"}],"outputs":[],"stateMutability":"nonpayable"},{"type":"function","name":"swapYesToNo","inputs":[{"name":"yesAmount","type":"uint256","internalType":"uint256"}],"outputs":[],"stateMutability":"nonpayable"},{"type":"function","name":"vault","inputs":[],"outputs":[{"name":"","type":"uint256","internalType":"uint256"}],"stateMutability":"view"},{"type":"function","name":"withdrawFees","inputs":[],"outputs":[],"stateMutability":"nonpayable"},{"type":"function","name":"yesBalance","inputs":[{"name":"","type":"address","internalType":"address"}],"outputs":[{"name":"","type":"uint256","internalType":"uint256"}],"stateMutability":"view"},{"type":"function","name":"yesWon","inputs":[],"outputs":[{"name":"","type":"bool","internalType":"bool"}],"stateMutability":"view"},{"type":"event","name":"BurnPairs","inputs":[{"name":"user","type":"address","indexed":true,"internalType":"address"},{"name":"amount","type":"uint256","indexed":false,"internalType":"uint256"},{"name":"newVault","type":"uint256","indexed":false,"internalType":"uint256"}],"anonymous":false},{"type":"event","name":"BuyNo","inputs":[{"name":"user","type":"address","indexed":true,"internalType":"address"},{"name":"collateralIn","type":"uint256","indexed":false,"internalType":"uint256"},{"name":"noMinted","type":"uint256","indexed":false,"internalType":"uint256"},{"name":"noFromSwap","type":"uint256","indexed":false,"internalType":"uint256"},{"name":"newX","type":"uint256","indexed":false,"internalType":"uint256"},{"name":"newY","type":"uint256","indexed":false,"internalType":"uint256"},{"name":"newVault","type":"uint256","indexed":false,"internalType":"uint256"}],"anonymous":false},{"type":"event","name":"BuyYes","inputs":[{"name":"user","type":"address","indexed":true,"internalType":"address"},{"name":"collateralIn","type":"uint256","indexed":false,"internalType":"uint256"},{"name":"yesMinted","type":"uint256","indexed":false,"internalType":"uint256"},{"name":"yesFromSwap","type":"uint256","indexed":false,"internalType":"uint256"},{"name":"newX","type":"uint256","indexed":false,"internalType":"uint256"},{"name":"newY","type":"uint256","indexed":false,"internalType":"uint256"},{"name":"newVault","type":"uint256","indexed":false,"internalType":"uint256"}],"anonymous":false},{"type":"event","name":"MarketCreated","inputs":[{"name":"question","type":"string","indexed":false,"internalType":"string"},{"name":"resolver","type":"address","indexed":false,"internalType":"address"},{"name":"fee","type":"uint256","indexed":false,"internalType":"uint256"},{"name":"endTime","type":"uint256","indexed":false,"internalType":"uint256"}],"anonymous":false},{"type":"event","name":"Redeemed","inputs":[{"name":"user","type":"address","indexed":true,"internalType":"address"},{"name":"yesSide","type":"bool","indexed":false,"internalType":"bool"},{"name":"amount","type":"uint256","indexed":false,"internalType":"uint256"},{"name":"newVault","type":"uint256","indexed":false,"internalType":"uint256"}],"anonymous":false},{"type":"event","name":"Resolved","inputs":[{"name":"yesWon","type":"bool","indexed":false,"internalType":"bool"}],"anonymous":false},{"type":"event","name":"Seeded","inputs":[{"name":"seed","type":"uint256","indexed":false,"internalType":"uint256"},{"name":"x","type":"uint256","indexed":false,"internalType":"uint256"},{"name":"y","type":"uint256","indexed":false,"internalType":"uint256"},{"name":"vault","type":"uint256","indexed":false,"internalType":"uint256"}],"anonymous":false},{"type":"event","name":"Swap","inputs":[{"name":"user","type":"address","indexed":true,"internalType":"address"},{"name":"noToYes","type":"bool","indexed":false,"internalType":"bool"},{"name":"amountIn","type":"uint256","indexed":false,"internalType":"uint256"},{"name":"amountOut","type":"uint256","indexed":false,"internalType":"uint256"},{"name":"newX","type":"uint256","indexed":false,"internalType":"uint256"},{"name":"newY","type":"uint256","indexed":false,"internalType":"uint256"}],"anonymous":false}],"bytecode":{"object":"0x60e06040526118678038038061001481610479565b92833981019060c0818303126104755780516001600160401b03811161047557810182601f820112156104755780516001600160401b03811161038457610064601f8201601f1916602001610479565b9181835260208301946020838301011161047557815f926020809301875e830101526100926020830161049e565b926040830151926060810151936100b060a06080840151930161049e565b916103e88211610441576001600160a01b0387169586156104095780156103d157813410610398578551976001600160401b038911610384575f54600181811c9116801561037a575b602082101461036657601f8111610304575b50602098601f811160011461028b579161015d918360a09998979695945f5160206118475f395f51905f529c5f91610280575b508160011b915f199060031b1c1916175f555b608052838852426104b2565b928360015560c0528061020f575b50604051958694608086525180948160808801528787015e5f858501870152602085015260408401526060830152601f01601f19168101030190a160405161137390816104d482396080518181816108d401528181610a6d01528181610b6f0152610c76015260a0518181816102400152818161048d0152818161059901528181610a9c01528181610e8a0152611003015260c05181818161085701526109350152f35b60808161023f7fe035d6ea43f6dbfe78c29cb35c46d37ba9c6676eac93cee0a46f72ad50f66214936003546104b2565b8060035561024f826004546104b2565b8060045561025f836005546104b2565b9081600555604051938452602084015260408301526060820152a15f61016b565b90508901515f61013e565b601f1981165f80528a5f20905f5b8181106102ec57508261015d94925f5160206118475f395f51905f529d60a09c9b9a99989795600194106102d4575b5050811b015f55610151565b8b01515f1960f88460031b161c191690555f806102c8565b8a8d0151835560209c8d019c60019093019201610299565b5f80527f290decd9548b62a8d60345a988386fc84ba6bc95484008f6362f93160ef3e563601f8b0160051c81019160208c1061035c575b601f0160051c01905b818110610351575061010b565b5f8155600101610344565b909150819061033b565b634e487b7160e01b5f52602260045260245ffd5b90607f16906100f9565b634e487b7160e01b5f52604160045260245ffd5b60405162461bcd60e51b8152602060048201526011602482015270125b9cdd59999a58da595b9d081cd95959607a1b6044820152606490fd5b60405162461bcd60e51b815260206004820152601060248201526f24b73b30b634b210323ab930ba34b7b760811b6044820152606490fd5b60405162461bcd60e51b815260206004820152601060248201526f24b73b30b634b2103932b9b7b63b32b960811b6044820152606490fd5b60405162461bcd60e51b815260206004820152600c60248201526b08ccaca40e8dede40d0d2ced60a31b6044820152606490fd5b5f80fd5b6040519190601f01601f191682016001600160401b0381118382101761038457604052565b51906001600160a01b038216820361047557565b919082018092116104bf57565b634e487b7160e01b5f52601160045260245ffdfe6080806040526004361015610012575f80fd5b5f3560e01c90816304f3bcec14610c64575080630bede3f814610b4b5780630ffa9bed14610b0f578063117fa04714610af157806323341a0514610a265780633197cbb614610a095780633f6fa655146109e75780633fad9ae0146109b4578063476343ee146108c25780635b8839171461088657806364df049e146108425780638779086f1461082857806387add2901461080257806392f11f38146106ff5780639d557289146106275780639e0754491461055c578063a9709c0c14610450578063abd3f61214610403578063b76162d7146103e6578063be040fb0146102a5578063cbee38dc14610280578063da9e708814610263578063ddca3f4314610229578063ea083402146101505763fbfa77cf1461012f575f80fd5b3461014c575f36600319011261014c576020600354604051908152f35b5f80fd5b3461014c57602036600319011261014c5760043561017360ff6002541615611064565b61018060015442106111a1565b335f5260076020526101988160405f20541015611122565b6101a38115156110a2565b335f52600760205260405f206101ba828254610e5e565b90556101c5816112f1565b335f52600660205260405f206101dc828254610e6b565b905560045460055491604051936001855260208501526040840152606083015260808201527fd55848f048ca7d5fd9869d414bb60a426c2b0125c8adb982fee123da3f841ed860a03392a2005b3461014c575f36600319011261014c5760206040517f00000000000000000000000000000000000000000000000000000000000000008152f35b3461014c575f36600319011261014c576020600454604051908152f35b3461014c575f36600319011261014c57602060ff60025460081c166040519015158152f35b3461014c575f36600319011261014c5760025460ff8116156103b25760081c60ff161561039a57335f90815260066020526040812080549190555b8015610361576102fe816003546102f982821015611160565b610e5e565b6003555f808080843382f1156103565760ff60025460081c1690600354906040519215158352602083015260408201527f11a5448f24368488f020eb1b349465b1fe0f035f9c9e3bc2046f51f7803c11c060603392a2005b6040513d5f823e3d90fd5b60405162461bcd60e51b81526020600482015260116024820152704e6f2077696e6e696e6720746f6b656e7360781b6044820152606490fd5b335f90815260076020526040812080549190556102e0565b60405162461bcd60e51b815260206004820152600c60248201526b139bdd081c995cdbdb1d995960a21b6044820152606490fd5b3461014c575f36600319011261014c576020600554604051908152f35b3461014c57602036600319011261014c576004356001600160a01b0381169081900361014c57806040915f526006602052815f2054905f526007602052815f205482519182526020820152f35b5f36600319011261014c5761046a60ff6002541615611064565b61047760015442106111a1565b6104823415156111dc565b6104b96127106104b27f000000000000000000000000000000000000000000000000000000000000000034610e19565b0434610e5e565b6104c581600354610e6b565b6003556104d481600454610e6b565b6004557f223637ee704cb4e1b3d5466b07677d0b6dddd547540eebf460473dd3daeaed6a61050182611290565b61050b8184610e6b565b335f52600760205261052260405f20918254610e6b565b90556004546005546003546040805134815260208101979097528601939093526060850191909152608084015260a0830152339160c090a2005b5f36600319011261014c5761057660ff6002541615611064565b61058360015442106111a1565b61058e3415156111dc565b6105be6127106104b27f000000000000000000000000000000000000000000000000000000000000000034610e19565b6105ca81600354610e6b565b6003556105d981600554610e6b565b6005557fc1b11bc682f9adb50d922a152fada94dc7d7f87ad0c155ea7a5498d88c09ecc9610606826112f1565b6106108184610e6b565b335f52600660205261052260405f20918254610e6b565b3461014c57602036600319011261014c5760043561064a60ff6002541615611064565b61065760015442106111a1565b335f52600660205261066f8160405f205410156110e3565b61067a8115156110a2565b335f52600660205260405f20610691828254610e5e565b905561069c81611290565b335f52600760205260405f206106b3828254610e6b565b905560045460055491604051935f855260208501526040840152606083015260808201527fd55848f048ca7d5fd9869d414bb60a426c2b0125c8adb982fee123da3f841ed860a03392a2005b3461014c57602036600319011261014c5760043561072260ff6002541615611064565b80801561072f81156110a2565b335f5260066020526107478260405f205410156110e3565b335f52600760205261075f8260405f20541015611122565b61076d826003541015611160565b335f52600660205260405f20610784838254610e5e565b9055335f52600760205260405f2061079d838254610e5e565b90556107ab82600354610e5e565b6003555f906107f9575b5f80809381933390f1156103565760035460405191825260208201527f973800a142ff1d6102d172045b132deb5df5167109567244b84ba97aeeace22160403392a2005b506108fc6107b5565b3461014c57602036600319011261014c576020610820600435610ff1565b604051908152f35b3461014c575f36600319011261014c576020610820610f9f565b3461014c575f36600319011261014c576040517f00000000000000000000000000000000000000000000000000000000000000006001600160a01b03168152602090f35b3461014c57602036600319011261014c576004356001600160a01b0381169081900361014c575f526006602052602060405f2054604051908152f35b3461014c575f36600319011261014c577f00000000000000000000000000000000000000000000000000000000000000006001600160a01b0316610907338214610dde565b6109144760035490610e5e565b90811561097957610977915f9182918291829160011c9061096d83808080867f00000000000000000000000000000000000000000000000000000000000000006001600160a01b03165af1610967610f22565b50610f61565b5af1610967610f22565b005b60405162461bcd60e51b81526020600482015260136024820152724e6f206665657320746f20776974686472617760681b6044820152606490fd5b3461014c575f36600319011261014c576109e36109cf610cff565b604051918291602083526020830190610ca5565b0390f35b3461014c575f36600319011261014c57602060ff600254166040519015158152f35b3461014c575f36600319011261014c576020600154604051908152f35b3461014c575f36600319011261014c57610a6b600154600254906003546004546005549160ff610a54610cff565b956040519788976101208952610120890190610ca5565b7f00000000000000000000000000000000000000000000000000000000000000006001600160a01b031660208901527f0000000000000000000000000000000000000000000000000000000000000000604089015260608801969096528082161515608088015260081c16151560a086015260c085015260e08401526101008301520390f35b3461014c57602036600319011261014c576020610820600435610e78565b3461014c57602036600319011261014c576004356001600160a01b0381169081900361014c575f526007602052602060405f2054604051908152f35b3461014c57602036600319011261014c5760043580151580910361014c57610b9d337f00000000000000000000000000000000000000000000000000000000000000006001600160a01b031614610dde565b60025460ff8116610c2c576001544210610bf45761ffff1916600882901b61ff0016176001176002556040519081527fdabf623a6bec72ad159e2d9533e7149ec45bfc657e39f49fb6a9509852dc77dc90602090a1005b60405162461bcd60e51b815260206004820152601060248201526f13585c9ad95d081b9bdd08195b99195960821b6044820152606490fd5b60405162461bcd60e51b815260206004820152601060248201526f105b1c9958591e481c995cdbdb1d995960821b6044820152606490fd5b3461014c575f36600319011261014c577f00000000000000000000000000000000000000000000000000000000000000006001600160a01b03168152602090f35b805180835260209291819084018484015e5f828201840152601f01601f1916010190565b90601f8019910116810190811067ffffffffffffffff821117610ceb57604052565b634e487b7160e01b5f52604160045260245ffd5b604051905f5f548060011c9160018216918215610dd4575b602084108314610dc0578386528592908115610da15750600114610d44575b610d4292500383610cc9565b565b505f80805290917f290decd9548b62a8d60345a988386fc84ba6bc95484008f6362f93160ef3e5635b818310610d85575050906020610d4292820101610d36565b6020919350806001915483858901015201910190918492610d6d565b60209250610d4294915060ff191682840152151560051b820101610d36565b634e487b7160e01b5f52602260045260245ffd5b92607f1692610d17565b15610de557565b60405162461bcd60e51b815260206004820152600c60248201526b2737ba103932b9b7b63b32b960a11b6044820152606490fd5b81810292918115918404141715610e2c57565b634e487b7160e01b5f52601160045260245ffd5b8115610e4a570490565b634e487b7160e01b5f52601260045260245ffd5b91908203918211610e2c57565b91908201809211610e2c57565b8015610f1d57610eb690612710610eaf7f000000000000000000000000000000000000000000000000000000000000000083610e19565b0490610e5e565b60045480158015610f13575b610efc5790610ef382610eed610edb84610ef996610e6b565b610ee86005548094610e19565b610e40565b90610e5e565b90610e6b565b90565b508060011b9080820460021490151715610e2c5790565b5060055415610ec2565b505f90565b3d15610f5c573d9067ffffffffffffffff8211610ceb5760405191610f51601f8201601f191660200184610cc9565b82523d5f602084013e565b606090565b15610f6857565b60405162461bcd60e51b815260206004820152600f60248201526e151c985b9cd9995c8819985a5b1959608a1b6044820152606490fd5b60045480158015610fe7575b610f1d5760055490670de0b6b3a7640000820290828204670de0b6b3a76400001483151715610e2c57610ef992610fe191610e6b565b90610e40565b5060055415610fab565b8015610f1d5761102890612710610eaf7f000000000000000000000000000000000000000000000000000000000000000083610e19565b6004548015801561105a575b610efc5790610ef3610ef992610eed600554610ee86110538683610e6b565b9184610e19565b5060055415611034565b1561106b57565b60405162461bcd60e51b815260206004820152600f60248201526e13585c9ad95d081c995cdbdb1d9959608a1b6044820152606490fd5b156110a957565b60405162461bcd60e51b81526020600482015260126024820152710416d6f756e74206d757374206265203e20360741b6044820152606490fd5b156110ea57565b60405162461bcd60e51b815260206004820152601060248201526f496e73756666696369656e742059455360801b6044820152606490fd5b1561112957565b60405162461bcd60e51b815260206004820152600f60248201526e496e73756666696369656e74204e4f60881b6044820152606490fd5b1561116757565b60405162461bcd60e51b8152602060048201526012602482015271125b9cdd59999a58da595b9d081d985d5b1d60721b6044820152606490fd5b156111a857565b60405162461bcd60e51b815260206004820152600c60248201526b13585c9ad95d08195b99195960a21b6044820152606490fd5b156111e357565b60405162461bcd60e51b815260206004820152600860248201526709ccacac8408aa8960c31b6044820152606490fd5b1561121a57565b60405162461bcd60e51b815260206004820152600c60248201526b4e6f206c697175696469747960a01b6044820152606490fd5b1561125557565b60405162461bcd60e51b8152602060048201526013602482015272125b9cdd59999a58da595b9d081bdd5d1c1d5d606a1b6044820152606490fd5b60045490811515806112e6575b6112a690611213565b6112d16112ca6112c3600554936112bd8587610e19565b95610e6b565b8094610e40565b8092610e5e565b916112dd83151561124e565b60045560055590565b50600554151561129d565b6004549081151580611332575b61130790611213565b6112d161132b6113246005549361131e8587610e19565b94610e6b565b8093610e40565b8093610e5e565b5060055415156112fe56fea2646970667358221220ae81fe3f371b178a94b0b19a19790764f45342f6babc49cb77580cbb62c663e664736f6c634300081b0033ccdee9db8c345dd53026f5dedbf3e8b723ceddd2ad8eeb96b00ce37fddd58b64","linkReferences":{}},"methodIdentifiers":{"burnPairs(uint256)":"92f11f38","buyNo()":"a9709c0c","buyYes()":"9e075449","endTime()":"3197cbb6","fee()":"ddca3f43","getMarketInfo()":"23341a05","getUserBalances(address)":"abd3f612","getYesPrice()":"8779086f","noBalance(address)":"0ffa9bed","previewBuyNo(uint256)":"117fa047","previewBuyYes(uint256)":"87add290","protocolFeeRecipient()":"64df049e","question()":"3fad9ae0","redeem()":"be040fb0","reserveNO()":"b76162d7","reserveYES()":"da9e7088","resolve(bool)":"0bede3f8","resolved()":"3f6fa655","resolver()":"04f3bcec","swapNoToYes(uint256)":"ea083402","swapYesToNo(uint256)":"9d557289","vault()":"fbfa77cf","withdrawFees()":"476343ee","yesBalance(address)":"5b883917","yesWon()":"cbee38dc"},"id":105}