{"abi":[{"type":"constructor","inputs":[{"name":"_protocolFeePaymentAddress","type":"address","internalType":"address"}],"stateMutability":"nonpayable"},{"type":"function","name":"createManualEvent","inputs":[{"name":"title","type":"string","internalType":"string"},{"name":"description","type":"string","internalType":"string"},{"name":"marketConfigs","type":"tuple[]","internalType":"struct EventFactory.MarketConfig[]","components":[{"name":"question","type":"string","internalType":"string"},{"name":"duration","type":"uint256","internalType":"uint256"},{"name":"fee","type":"uint256","internalType":"uint256"},{"name":"seedCollateral","type":"uint256","internalType":"uint256"}]}],"outputs":[{"name":"eventId","type":"uint256","internalType":"uint256"},{"name":"marketIds","type":"uint256[]","internalType":"uint256[]"}],"stateMutability":"payable"},{"type":"function","name":"events","inputs":[{"name":"","type":"uint256","internalType":"uint256"}],"outputs":[{"name":"title","type":"string","internalType":"string"},{"name":"description","type":"string","internalType":"string"},{"name":"creator","type":"address","internalType":"address"},{"name":"createdAt","type":"uint256","internalType":"uint256"},{"name":"exists","type":"bool","internalType":"bool"}],"stateMutability":"view"},{"type":"function","name":"getAllEventsWithMarkets","inputs":[],"outputs":[{"name":"allEvents","type":"tuple[]","internalType":"struct EventFactory.Event[]","components":[{"name":"title","type":"string","internalType":"string"},{"name":"description","type":"string","internalType":"string"},{"name":"creator","type":"address","internalType":"address"},{"name":"createdAt","type":"uint256","internalType":"uint256"},{"name":"marketIds","type":"uint256[]","internalType":"uint256[]"},{"name":"exists","type":"bool","internalType":"bool"}]},{"name":"allMarkets","type":"tuple[][]","internalType":"struct EventFactory.MarketInfo[][]","components":[{"name":"marketContract","type":"address","internalType":"address"},{"name":"question","type":"string","internalType":"string"},{"name":"eventId","type":"uint256","internalType":"uint256"},{"name":"endTime","type":"uint256","internalType":"uint256"},{"name":"resolver","type":"address","internalType":"address"},{"name":"fee","type":"uint256","internalType":"uint256"},{"name":"exists","type":"bool","internalType":"bool"}]}],"stateMutability":"view"},{"type":"function","name":"getEvent","inputs":[{"name":"eventId","type":"uint256","internalType":"uint256"}],"outputs":[{"name":"title","type":"string","internalType":"string"},{"name":"description","type":"string","internalType":"string"},{"name":"creator","type":"address","internalType":"address"},{"name":"createdAt","type":"uint256","internalType":"uint256"},{"name":"marketIds","type":"uint256[]","internalType":"uint256[]"}],"stateMutability":"view"},{"type":"function","name":"getEventMarkets","inputs":[{"name":"eventId","type":"uint256","internalType":"uint256"}],"outputs":[{"name":"marketContracts","type":"address[]","internalType":"address[]"}],"stateMutability":"view"},{"type":"function","name":"getEventWithMarkets","inputs":[{"name":"eventId","type":"uint256","internalType":"uint256"}],"outputs":[{"name":"eventInfo","type":"tuple","internalType":"struct EventFactory.Event","components":[{"name":"title","type":"string","internalType":"string"},{"name":"description","type":"string","internalType":"string"},{"name":"creator","type":"address","internalType":"address"},{"name":"createdAt","type":"uint256","internalType":"uint256"},{"name":"marketIds","type":"uint256[]","internalType":"uint256[]"},{"name":"exists","type":"bool","internalType":"bool"}]},{"name":"marketInfos","type":"tuple[]","internalType":"struct EventFactory.MarketInfo[]","components":[{"name":"marketContract","type":"address","internalType":"address"},{"name":"question","type":"string","internalType":"string"},{"name":"eventId","type":"uint256","internalType":"uint256"},{"name":"endTime","type":"uint256","internalType":"uint256"},{"name":"resolver","type":"address","internalType":"address"},{"name":"fee","type":"uint256","internalType":"uint256"},{"name":"exists","type":"bool","internalType":"bool"}]}],"stateMutability":"view"},{"type":"function","name":"getMarket","inputs":[{"name":"marketId","type":"uint256","internalType":"uint256"}],"outputs":[{"name":"marketContract","type":"address","internalType":"address"},{"name":"question","type":"string","internalType":"string"},{"name":"eventId","type":"uint256","internalType":"uint256"},{"name":"endTime","type":"uint256","internalType":"uint256"},{"name":"resolver","type":"address","internalType":"address"},{"name":"fee","type":"uint256","internalType":"uint256"}],"stateMutability":"view"},{"type":"function","name":"markets","inputs":[{"name":"","type":"uint256","internalType":"uint256"}],"outputs":[{"name":"marketContract","type":"address","internalType":"address"},{"name":"question","type":"string","internalType":"string"},{"name":"eventId","type":"uint256","internalType":"uint256"},{"name":"endTime","type":"uint256","internalType":"uint256"},{"name":"resolver","type":"address","internalType":"address"},{"name":"fee","type":"uint256","internalType":"uint256"},{"name":"exists","type":"bool","internalType":"bool"}],"stateMutability":"view"},{"type":"function","name":"maxFeePercentage","inputs":[],"outputs":[{"name":"","type":"uint256","internalType":"uint256"}],"stateMutability":"view"},{"type":"function","name":"nextEventId","inputs":[],"outputs":[{"name":"","type":"uint256","internalType":"uint256"}],"stateMutability":"view"},{"type":"function","name":"nextMarketId","inputs":[],"outputs":[{"name":"","type":"uint256","internalType":"uint256"}],"stateMutability":"view"},{"type":"function","name":"owner","inputs":[],"outputs":[{"name":"","type":"address","internalType":"address"}],"stateMutability":"view"},{"type":"function","name":"protocolFeePaymentAddress","inputs":[],"outputs":[{"name":"","type":"address","internalType":"address"}],"stateMutability":"view"},{"type":"function","name":"renounceOwnership","inputs":[],"outputs":[],"stateMutability":"nonpayable"},{"type":"function","name":"setMaxFeePercentage","inputs":[{"name":"newMaxFeePercentage","type":"uint256","internalType":"uint256"}],"outputs":[],"stateMutability":"nonpayable"},{"type":"function","name":"setProtocolFeePaymentAddress","inputs":[{"name":"newPaymentAddress","type":"address","internalType":"address"}],"outputs":[],"stateMutability":"nonpayable"},{"type":"function","name":"transferOwnership","inputs":[{"name":"newOwner","type":"address","internalType":"address"}],"outputs":[],"stateMutability":"nonpayable"},{"type":"event","name":"EventCreated","inputs":[{"name":"eventId","type":"uint256","indexed":true,"internalType":"uint256"},{"name":"title","type":"string","indexed":false,"internalType":"string"},{"name":"creator","type":"address","indexed":true,"internalType":"address"},{"name":"marketIds","type":"uint256[]","indexed":false,"internalType":"uint256[]"}],"anonymous":false},{"type":"event","name":"MarketCreated","inputs":[{"name":"marketId","type":"uint256","indexed":true,"internalType":"uint256"},{"name":"eventId","type":"uint256","indexed":true,"internalType":"uint256"},{"name":"marketContract","type":"address","indexed":true,"internalType":"address"},{"name":"question","type":"string","indexed":false,"internalType":"string"}],"anonymous":false},{"type":"event","name":"MaxFeeUpdated","inputs":[{"name":"oldMaxFee","type":"uint256","indexed":false,"internalType":"uint256"},{"name":"newMaxFee","type":"uint256","indexed":false,"internalType":"uint256"}],"anonymous":false},{"type":"event","name":"OwnershipTransferred","inputs":[{"name":"previousOwner","type":"address","indexed":true,"internalType":"address"},{"name":"newOwner","type":"address","indexed":true,"internalType":"address"}],"anonymous":false},{"type":"error","name":"EmptyQuestion","inputs":[]},{"type":"error","name":"EmptyTitle","inputs":[]},{"type":"error","name":"EventNotFound","inputs":[]},{"type":"error","name":"FeeExceedsMaximum","inputs":[]},{"type":"error","name":"InvalidEndTime","inputs":[]},{"type":"error","name":"InvalidFeePercentage","inputs":[]},{"type":"error","name":"InvalidResolver","inputs":[]},{"type":"error","name":"MarketNotFound","inputs":[]},{"type":"error","name":"NoMarketsProvided","inputs":[]},{"type":"error","name":"OwnableInvalidOwner","inputs":[{"name":"owner","type":"address","internalType":"address"}]},{"type":"error","name":"OwnableUnauthorizedAccount","inputs":[{"name":"account","type":"address","internalType":"address"}]},{"type":"error","name":"ReentrancyGuardReentrantCall","inputs":[]}],"bytecode":{"object":"0x60803460dd57601f61327638819003918201601f19168301916001600160401b0383118484101760e15780849260209460405283398101031260dd57516001600160a01b0381169081900360dd57331560ca575f8054336001600160a01b0319821681178355604051939290916001600160a01b0316907f8be0079c531659141344cd1fd0a4f28419497f9722a3daafe3b4186f6b6457e09080a360018055600160045560016005556103e860065560018060a01b0319600754161760075561318090816100f68239f35b631e4fbdf760e01b5f525f60045260245ffd5b5f80fd5b634e487b7160e01b5f52604160045260245ffdfe60806040526004361015610011575f80fd5b5f3560e01c80630b791430146112f1578063406ef2ef146112d45780634c1ed0641461120f5780636d1884e014611169578063715018a61461111257806371d18938146110ea57806374e950da146107155780638da5cb5b146106ee5780639f9d903a146106d1578063a162ef9514610470578063a66cd09414610403578063b1283e7714610367578063b2ffe3b314610322578063bf654aac14610305578063cdaac86214610206578063eb44fdd3146101615763f2fde38b146100d4575f80fd5b3461015d57602036600319011261015d576004356001600160a01b0381169081900361015d5761010261188c565b801561014a575f80546001600160a01b03198116831782556001600160a01b0316907f8be0079c531659141344cd1fd0a4f28419497f9722a3daafe3b4186f6b6457e09080a3005b631e4fbdf760e01b5f525f60045260245ffd5b5f80fd5b3461015d57602036600319011261015d576004355f52600360205260405f2060ff600682015416156101f7578054600282015460038301546004840154600585015491946001600160a01b0394851694909116906101c19060010161140f565b946101de604051968796875260c0602088015260c08701906114af565b9360408601526060850152608084015260a08301520390f35b6307db1be560e41b5f5260045ffd5b3461015d57602036600319011261015d576004355f52600260205260405f2060ff600582015416156102f6576004018054906102418261166f565b9161024f60405193846113ee565b80835261025b8161166f565b602084019290601f19013684375f5b8281106102be578385604051918291602083019060208452518091526040830191905f5b81811061029c575050500390f35b82516001600160a01b031684528594506020938401939092019160010161028e565b806102cb600192846117e2565b90549060031b1c5f526003602052818060a01b0360405f2054166102ef828861180b565b520161026a565b635add554360e01b5f5260045ffd5b3461015d575f36600319011261015d576020600654604051908152f35b3461015d57602036600319011261015d576004356001600160a01b0381169081900361015d5761035061188c565b6001600160601b0360a01b60075416176007555f80f35b3461015d57602036600319011261015d576004355f90815260036020526040902080546001600160a01b031661039f6001830161140f565b9160028101549060038101549060018060a01b0360048201541660ff6006600584015493015416926103e3604051978897885260e0602089015260e08801906114af565b9460408701526060860152608085015260a0840152151560c08301520390f35b3461015d57602036600319011261015d5760043561041f61188c565b6103e881116104615760407f55da9d9f29042024b8aad914fbf7f6bccc42cf3222745e3cbcb20eee5858880c91600654908060065582519182526020820152a1005b63390edff560e11b5f5260045ffd5b3461015d575f36600319011261015d576004545f198101818111610695576104978161166f565b916104a560405193846113ee565b818352601f196104b48361166f565b015f5b8181106106ba5750506104c98261166f565b916104d760405193846113ee565b8083526104e6601f199161166f565b015f5b8181106106a957505060015b8181106105c3578284604051918291604083016040845281518091526060840190602060608260051b8701019301915f905b82821061059257505050508281036020840152815180825260208201916020808360051b8301019401925f915b8383106105615786860387f35b919395509193602080610580600193601f19868203018752895161156d565b97019301930190928695949293610554565b91936001919395965060206105b28192605f198b82030186528851611506565b960192019201869594939192610527565b805f52600260205260405f2060ff6005820154166105e5575b506001016104f5565b5f1982019082821161069557806105fd600492611701565b610607848961180b565b52610612838861180b565b500180549061062082611768565b61062a848861180b565b52610635838761180b565b505f5b828110610647575050506105dc565b80610654600192846117e2565b90549060031b1c5f52600360205261068e8160405f2061067e610677898d61180b565b519161181f565b610688838361180b565b5261180b565b5001610638565b634e487b7160e01b5f52601160045260245ffd5b8060606020809387010152016104e9565b6020906106c5611686565b828288010152016104b7565b3461015d575f36600319011261015d576020600454604051908152f35b3461015d575f36600319011261015d575f546040516001600160a01b039091168152602090f35b606036600319011261015d576004356001600160401b03811161015d5761074090369060040161161a565b6024356001600160401b03811161015d5761075f90369060040161161a565b90604435916001600160401b03831161015d573660238401121561015d57826004013561078b8161166f565b9361079960405195866113ee565b8185526024602086019260051b8201019036821161015d5760248101925b82841061105b575050505060026001541461104c57600260015581511561103d5782511561102e575f90815b845183101561080f5761080760019160606107fe868961180b565b510151906118b2565b9201916107e3565b909291503410610fdd5760045492610826846118bf565b60045580519161084e6108388461166f565b9361084660405195866113ee565b80855261166f565b602084019490601f190136863760405190610868826113b8565b828252602082019081526040820133815260608301428152608084019187835260a0850193600185528a5f52600260205260405f2095518051906001600160401b038211610d325781906108bc8954611380565b601f8111610fad575b50602090601f8311600114610f4a575f92610f3f575b50508160011b915f199060031b1c19161786555b51805160018701916001600160401b038211610d325781906109118454611380565b601f8111610f0f575b50602090601f8311600114610eac575f92610ea1575b50508160011b915f199060031b1c19161790555b516002850180546001600160a01b0319166001600160a01b03929092169190911790555160038401555180519060048401906001600160401b038311610d3257600160401b8311610d32576020908254848455808510610e86575b5001905f5260205f205f5b838110610e7257505050509060056109d29251151591019060ff801983541691151516179055565b5f5b8251811015610d7e576109e7818461180b565b5180515115610d6f57602081015115610d6057604081015160065410610d515760055490610a14826118bf565b600555606081015181516040808401516020850151600754925193926001600160a01b0316906001600160401b03611867860190811190861117610d3257610a7085946118676118e4873960c0611867870181815201906114af565b92336020611867870101526040611867860101526060611867850101528460806118678501015260a0611867840101520391f0908115610d4657610ab86020820151426118b2565b908051604082015160405193610acd856113d3565b60018060a01b0386168552602085019283528c6040860152606085015233608085015260a0840152600160c0840152845f52600360205260405f209060018060a01b0360018060a01b03855116166001600160601b0360a01b835416178255519283516001600160401b038111610d32578c94610b4d6001850154611380565b601f8111610cf4575b50602090601f8311600114610c5657889796959194600660c07f0bc2a35bcd8dc65c0c53de105d719e72b6e7c46f7fce1bb1e82db4546184c48e9686610c379760019f9e9a610c19975f92610c4b575b50505f19600383901b1c1916908f1b17848f01555b60408101516002850155606081015160038501558d8060a01b0360808201511660048501908f8060a01b03166001600160601b0360a01b82541617905560a081015160058501550151151591019060ff801983541691151516179055565b5194604051918291602083528a8060a01b03169660208301906114af565b0390a4610c44828761180b565b52016109d4565b015190505f80610ba6565b90600185015f52805f20915f5b601f1985168110610cdc575094600660c07f0bc2a35bcd8dc65c0c53de105d719e72b6e7c46f7fce1bb1e82db4546184c48e96600187819f9e9d9c9b97610c19978f9c610c379b601f19811610610cc4575b505050811b018e850155610bbb565b01515f1960f88460031b161c191690555f8080610cb5565b91926020600181928685015181550194019201610c63565b610d2290600186015f5260205f20601f850160051c81019160208610610d28575b601f0160051c01906118cd565b8e610b56565b9091508190610d15565b634e487b7160e01b5f52604160045260245ffd5b6040513d5f823e3d90fd5b632be7087760e21b5f5260045ffd5b6338af65f760e01b5f5260045ffd5b630d5003f360e01b5f5260045ffd5b83868387825f526002602052600460405f20018451916001600160401b038311610d3257600160401b8311610d32578154838355808410610e56575b50905f5260205f205f5b838110610e425750505050817fac2a1dc6519b1dfc4a5f76d7fe82148d03b60d0364200cba566b6ebf8a2392ae610e06604051936040855260408501906114af565b92808403602082015280610e1b3395886114d3565b0390a360018055610e3e60405192839283526040602084015260408301906114d3565b0390f35b600190602084519401938184015501610dc4565b610e6c90835f528460205f2091820191016118cd565b86610dba565b6001906020845194019381840155016109aa565b610e9b90845f5285845f2091820191016118cd565b8b61099f565b015190508d80610930565b5f8581528281209350601f198516905b818110610ef75750908460019594939210610edf575b505050811b019055610944565b01515f1960f88460031b161c191690558d8080610ed2565b92936020600181928786015181550195019301610ebc565b610f3990855f5260205f20601f850160051c81019160208610610d2857601f0160051c01906118cd565b8e61091a565b015190508d806108db565b5f8a81528281209350601f198516905b818110610f955750908460019594939210610f7d575b505050811b0186556108ef565b01515f1960f88460031b161c191690558d8080610f70565b92936020600181928786015181550195019301610f5a565b610fd7908a5f5260205f20601f850160051c81019160208610610d2857601f0160051c01906118cd565b8e6108c5565b60405162461bcd60e51b8152602060048201526024808201527f496e73756666696369656e742045544820666f72207365656420636f6c6c6174604482015263195c985b60e21b6064820152608490fd5b63251e075b60e01b5f5260045ffd5b6352ddcdef60e11b5f5260045ffd5b633ee5aeb560e01b5f5260045ffd5b83356001600160401b03811161015d5782016080602319823603011261015d5760405191608083018381106001600160401b03821117610d32576040526024820135926001600160401b03841161015d576084602094936110c386956024369184010161161a565b835260448101358584015260648101356040840152013560608201528152019301926107b7565b3461015d575f36600319011261015d576007546040516001600160a01b039091168152602090f35b3461015d575f36600319011261015d5761112a61188c565b5f80546001600160a01b0319811682556001600160a01b03167f8be0079c531659141344cd1fd0a4f28419497f9722a3daafe3b4186f6b6457e08280a3005b3461015d57602036600319011261015d576004355f52600260205260405f2060ff600582015416156102f6576111e990610e3e60018060a01b036002830154166003830154926111b88161140f565b936111f76111d460046111cd6001860161140f565b94016116b9565b9260405197889760a0895260a08901906114af565b9087820360208901526114af565b926040860152606085015283820360808501526114d3565b3461015d57602036600319011261015d57611228611686565b506004355f52600260205260405f2060ff600582015416156102f657600461124f82611701565b910190815461125d81611768565b925f5b8281106112915761128384610e3e87604051938493604085526040850190611506565b90838203602085015261156d565b8061129e600192846117e2565b90549060031b1c5f5260036020526112b860405f2061181f565b6112c2828861180b565b526112cd818761180b565b5001611260565b3461015d575f36600319011261015d576020600554604051908152f35b3461015d57602036600319011261015d576004355f52600260205261135c60405f2061131c8161140f565b906113296001820161140f565b60018060a01b036002830154169161136a60ff60056003840154930154169260405196879660a0885260a08801906114af565b9086820360208801526114af565b9260408501526060840152151560808301520390f35b90600182811c921680156113ae575b602083101461139a57565b634e487b7160e01b5f52602260045260245ffd5b91607f169161138f565b60c081019081106001600160401b03821117610d3257604052565b60e081019081106001600160401b03821117610d3257604052565b90601f801991011681019081106001600160401b03821117610d3257604052565b9060405191825f82549261142284611380565b808452936001811690811561148d5750600114611449575b50611447925003836113ee565b565b90505f9291925260205f20905f915b818310611471575050906020611447928201015f61143a565b6020919350806001915483858901015201910190918492611458565b90506020925061144794915060ff191682840152151560051b8201015f61143a565b805180835260209291819084018484015e5f828201840152601f01601f1916010190565b90602080835192838152019201905f5b8181106114f05750505090565b82518452602093840193909201916001016114e3565b9060a080611562611535611523865160c0875260c08701906114af565b602087015186820360208801526114af565b600180841b03604087015116604086015260608601516060860152608086015185820360808701526114d3565b930151151591015290565b9080602083519182815201916020808360051b8301019401925f915b83831061159857505050505090565b9091929394602080600192601f19858203018652885190848060a01b03825116815260c0806115d48585015160e08786015260e08501906114af565b936040810151604085015260608101516060850152878060a01b03608082015116608085015260a081015160a08501520151151591015297019301930191939290611589565b81601f8201121561015d578035906001600160401b038211610d32576040519261164e601f8401601f1916602001856113ee565b8284526020838301011161015d57815f926020809301838601378301015290565b6001600160401b038111610d325760051b60200190565b60405190611693826113b8565b5f60a0836060815260606020820152826040820152826060820152606060808201520152565b90604051918281549182825260208201905f5260205f20925f5b8181106116e8575050611447925003836113ee565b84548352600194850194879450602090930192016116d3565b9060405161170e816113b8565b60a060ff6005839561171f8161140f565b855261172d6001820161140f565b6020860152600180851b03600282015416604086015260038101546060860152611759600482016116b9565b60808601520154161515910152565b906117728261166f565b61177f60405191826113ee565b8281528092611790601f199161166f565b01905f5b8281106117a057505050565b6020906040516117af816113d3565b5f81526060838201525f60408201525f60608201525f60808201525f60a08201525f60c082015282828501015201611794565b80548210156117f7575f5260205f2001905f90565b634e487b7160e01b5f52603260045260245ffd5b80518210156117f75760209160051b010190565b9060405161182c816113d3565b60c060ff6006839560018060a01b03815416855261184c6001820161140f565b6020860152600281015460408601526003810154606086015260048101546001600160a01b03166080860152600581015460a08601520154161515910152565b5f546001600160a01b0316330361189f57565b63118cdaa760e01b5f523360045260245ffd5b9190820180921161069557565b5f1981146106955760010190565b8181106118d8575050565b5f81556001016118cd56fe60e06040526118678038038061001481610479565b92833981019060c0818303126104755780516001600160401b03811161047557810182601f820112156104755780516001600160401b03811161038457610064601f8201601f1916602001610479565b9181835260208301946020838301011161047557815f926020809301875e830101526100926020830161049e565b926040830151926060810151936100b060a06080840151930161049e565b916103e88211610441576001600160a01b0387169586156104095780156103d157813410610398578551976001600160401b038911610384575f54600181811c9116801561037a575b602082101461036657601f8111610304575b50602098601f811160011461028b579161015d918360a09998979695945f5160206118475f395f51905f529c5f91610280575b508160011b915f199060031b1c1916175f555b608052838852426104b2565b928360015560c0528061020f575b50604051958694608086525180948160808801528787015e5f858501870152602085015260408401526060830152601f01601f19168101030190a160405161137390816104d482396080518181816108d401528181610a6d01528181610b6f0152610c76015260a0518181816102400152818161048d0152818161059901528181610a9c01528181610e8a0152611003015260c05181818161085701526109350152f35b60808161023f7fe035d6ea43f6dbfe78c29cb35c46d37ba9c6676eac93cee0a46f72ad50f66214936003546104b2565b8060035561024f826004546104b2565b8060045561025f836005546104b2565b9081600555604051938452602084015260408301526060820152a15f61016b565b90508901515f61013e565b601f1981165f80528a5f20905f5b8181106102ec57508261015d94925f5160206118475f395f51905f529d60a09c9b9a99989795600194106102d4575b5050811b015f55610151565b8b01515f1960f88460031b161c191690555f806102c8565b8a8d0151835560209c8d019c60019093019201610299565b5f80527f290decd9548b62a8d60345a988386fc84ba6bc95484008f6362f93160ef3e563601f8b0160051c81019160208c1061035c575b601f0160051c01905b818110610351575061010b565b5f8155600101610344565b909150819061033b565b634e487b7160e01b5f52602260045260245ffd5b90607f16906100f9565b634e487b7160e01b5f52604160045260245ffd5b60405162461bcd60e51b8152602060048201526011602482015270125b9cdd59999a58da595b9d081cd95959607a1b6044820152606490fd5b60405162461bcd60e51b815260206004820152601060248201526f24b73b30b634b210323ab930ba34b7b760811b6044820152606490fd5b60405162461bcd60e51b815260206004820152601060248201526f24b73b30b634b2103932b9b7b63b32b960811b6044820152606490fd5b60405162461bcd60e51b815260206004820152600c60248201526b08ccaca40e8dede40d0d2ced60a31b6044820152606490fd5b5f80fd5b6040519190601f01601f191682016001600160401b0381118382101761038457604052565b51906001600160a01b038216820361047557565b919082018092116104bf57565b634e487b7160e01b5f52601160045260245ffdfe6080806040526004361015610012575f80fd5b5f3560e01c90816304f3bcec14610c64575080630bede3f814610b4b5780630ffa9bed14610b0f578063117fa04714610af157806323341a0514610a265780633197cbb614610a095780633f6fa655146109e75780633fad9ae0146109b4578063476343ee146108c25780635b8839171461088657806364df049e146108425780638779086f1461082857806387add2901461080257806392f11f38146106ff5780639d557289146106275780639e0754491461055c578063a9709c0c14610450578063abd3f61214610403578063b76162d7146103e6578063be040fb0146102a5578063cbee38dc14610280578063da9e708814610263578063ddca3f4314610229578063ea083402146101505763fbfa77cf1461012f575f80fd5b3461014c575f36600319011261014c576020600354604051908152f35b5f80fd5b3461014c57602036600319011261014c5760043561017360ff6002541615611064565b61018060015442106111a1565b335f5260076020526101988160405f20541015611122565b6101a38115156110a2565b335f52600760205260405f206101ba828254610e5e565b90556101c5816112f1565b335f52600660205260405f206101dc828254610e6b565b905560045460055491604051936001855260208501526040840152606083015260808201527fd55848f048ca7d5fd9869d414bb60a426c2b0125c8adb982fee123da3f841ed860a03392a2005b3461014c575f36600319011261014c5760206040517f00000000000000000000000000000000000000000000000000000000000000008152f35b3461014c575f36600319011261014c576020600454604051908152f35b3461014c575f36600319011261014c57602060ff60025460081c166040519015158152f35b3461014c575f36600319011261014c5760025460ff8116156103b25760081c60ff161561039a57335f90815260066020526040812080549190555b8015610361576102fe816003546102f982821015611160565b610e5e565b6003555f808080843382f1156103565760ff60025460081c1690600354906040519215158352602083015260408201527f11a5448f24368488f020eb1b349465b1fe0f035f9c9e3bc2046f51f7803c11c060603392a2005b6040513d5f823e3d90fd5b60405162461bcd60e51b81526020600482015260116024820152704e6f2077696e6e696e6720746f6b656e7360781b6044820152606490fd5b335f90815260076020526040812080549190556102e0565b60405162461bcd60e51b815260206004820152600c60248201526b139bdd081c995cdbdb1d995960a21b6044820152606490fd5b3461014c575f36600319011261014c576020600554604051908152f35b3461014c57602036600319011261014c576004356001600160a01b0381169081900361014c57806040915f526006602052815f2054905f526007602052815f205482519182526020820152f35b5f36600319011261014c5761046a60ff6002541615611064565b61047760015442106111a1565b6104823415156111dc565b6104b96127106104b27f000000000000000000000000000000000000000000000000000000000000000034610e19565b0434610e5e565b6104c581600354610e6b565b6003556104d481600454610e6b565b6004557f223637ee704cb4e1b3d5466b07677d0b6dddd547540eebf460473dd3daeaed6a61050182611290565b61050b8184610e6b565b335f52600760205261052260405f20918254610e6b565b90556004546005546003546040805134815260208101979097528601939093526060850191909152608084015260a0830152339160c090a2005b5f36600319011261014c5761057660ff6002541615611064565b61058360015442106111a1565b61058e3415156111dc565b6105be6127106104b27f000000000000000000000000000000000000000000000000000000000000000034610e19565b6105ca81600354610e6b565b6003556105d981600554610e6b565b6005557fc1b11bc682f9adb50d922a152fada94dc7d7f87ad0c155ea7a5498d88c09ecc9610606826112f1565b6106108184610e6b565b335f52600660205261052260405f20918254610e6b565b3461014c57602036600319011261014c5760043561064a60ff6002541615611064565b61065760015442106111a1565b335f52600660205261066f8160405f205410156110e3565b61067a8115156110a2565b335f52600660205260405f20610691828254610e5e565b905561069c81611290565b335f52600760205260405f206106b3828254610e6b565b905560045460055491604051935f855260208501526040840152606083015260808201527fd55848f048ca7d5fd9869d414bb60a426c2b0125c8adb982fee123da3f841ed860a03392a2005b3461014c57602036600319011261014c5760043561072260ff6002541615611064565b80801561072f81156110a2565b335f5260066020526107478260405f205410156110e3565b335f52600760205261075f8260405f20541015611122565b61076d826003541015611160565b335f52600660205260405f20610784838254610e5e565b9055335f52600760205260405f2061079d838254610e5e565b90556107ab82600354610e5e565b6003555f906107f9575b5f80809381933390f1156103565760035460405191825260208201527f973800a142ff1d6102d172045b132deb5df5167109567244b84ba97aeeace22160403392a2005b506108fc6107b5565b3461014c57602036600319011261014c576020610820600435610ff1565b604051908152f35b3461014c575f36600319011261014c576020610820610f9f565b3461014c575f36600319011261014c576040517f00000000000000000000000000000000000000000000000000000000000000006001600160a01b03168152602090f35b3461014c57602036600319011261014c576004356001600160a01b0381169081900361014c575f526006602052602060405f2054604051908152f35b3461014c575f36600319011261014c577f00000000000000000000000000000000000000000000000000000000000000006001600160a01b0316610907338214610dde565b6109144760035490610e5e565b90811561097957610977915f9182918291829160011c9061096d83808080867f00000000000000000000000000000000000000000000000000000000000000006001600160a01b03165af1610967610f22565b50610f61565b5af1610967610f22565b005b60405162461bcd60e51b81526020600482015260136024820152724e6f206665657320746f20776974686472617760681b6044820152606490fd5b3461014c575f36600319011261014c576109e36109cf610cff565b604051918291602083526020830190610ca5565b0390f35b3461014c575f36600319011261014c57602060ff600254166040519015158152f35b3461014c575f36600319011261014c576020600154604051908152f35b3461014c575f36600319011261014c57610a6b600154600254906003546004546005549160ff610a54610cff565b956040519788976101208952610120890190610ca5565b7f00000000000000000000000000000000000000000000000000000000000000006001600160a01b031660208901527f0000000000000000000000000000000000000000000000000000000000000000604089015260608801969096528082161515608088015260081c16151560a086015260c085015260e08401526101008301520390f35b3461014c57602036600319011261014c576020610820600435610e78565b3461014c57602036600319011261014c576004356001600160a01b0381169081900361014c575f526007602052602060405f2054604051908152f35b3461014c57602036600319011261014c5760043580151580910361014c57610b9d337f00000000000000000000000000000000000000000000000000000000000000006001600160a01b031614610dde565b60025460ff8116610c2c576001544210610bf45761ffff1916600882901b61ff0016176001176002556040519081527fdabf623a6bec72ad159e2d9533e7149ec45bfc657e39f49fb6a9509852dc77dc90602090a1005b60405162461bcd60e51b815260206004820152601060248201526f13585c9ad95d081b9bdd08195b99195960821b6044820152606490fd5b60405162461bcd60e51b815260206004820152601060248201526f105b1c9958591e481c995cdbdb1d995960821b6044820152606490fd5b3461014c575f36600319011261014c577f00000000000000000000000000000000000000000000000000000000000000006001600160a01b03168152602090f35b805180835260209291819084018484015e5f828201840152601f01601f1916010190565b90601f8019910116810190811067ffffffffffffffff821117610ceb57604052565b634e487b7160e01b5f52604160045260245ffd5b604051905f5f548060011c9160018216918215610dd4575b602084108314610dc0578386528592908115610da15750600114610d44575b610d4292500383610cc9565b565b505f80805290917f290decd9548b62a8d60345a988386fc84ba6bc95484008f6362f93160ef3e5635b818310610d85575050906020610d4292820101610d36565b6020919350806001915483858901015201910190918492610d6d565b60209250610d4294915060ff191682840152151560051b820101610d36565b634e487b7160e01b5f52602260045260245ffd5b92607f1692610d17565b15610de557565b60405162461bcd60e51b815260206004820152600c60248201526b2737ba103932b9b7b63b32b960a11b6044820152606490fd5b81810292918115918404141715610e2c57565b634e487b7160e01b5f52601160045260245ffd5b8115610e4a570490565b634e487b7160e01b5f52601260045260245ffd5b91908203918211610e2c57565b91908201809211610e2c57565b8015610f1d57610eb690612710610eaf7f000000000000000000000000000000000000000000000000000000000000000083610e19565b0490610e5e565b60045480158015610f13575b610efc5790610ef382610eed610edb84610ef996610e6b565b610ee86005548094610e19565b610e40565b90610e5e565b90610e6b565b90565b508060011b9080820460021490151715610e2c5790565b5060055415610ec2565b505f90565b3d15610f5c573d9067ffffffffffffffff8211610ceb5760405191610f51601f8201601f191660200184610cc9565b82523d5f602084013e565b606090565b15610f6857565b60405162461bcd60e51b815260206004820152600f60248201526e151c985b9cd9995c8819985a5b1959608a1b6044820152606490fd5b60045480158015610fe7575b610f1d5760055490670de0b6b3a7640000820290828204670de0b6b3a76400001483151715610e2c57610ef992610fe191610e6b565b90610e40565b5060055415610fab565b8015610f1d5761102890612710610eaf7f000000000000000000000000000000000000000000000000000000000000000083610e19565b6004548015801561105a575b610efc5790610ef3610ef992610eed600554610ee86110538683610e6b565b9184610e19565b5060055415611034565b1561106b57565b60405162461bcd60e51b815260206004820152600f60248201526e13585c9ad95d081c995cdbdb1d9959608a1b6044820152606490fd5b156110a957565b60405162461bcd60e51b81526020600482015260126024820152710416d6f756e74206d757374206265203e20360741b6044820152606490fd5b156110ea57565b60405162461bcd60e51b815260206004820152601060248201526f496e73756666696369656e742059455360801b6044820152606490fd5b1561112957565b60405162461bcd60e51b815260206004820152600f60248201526e496e73756666696369656e74204e4f60881b6044820152606490fd5b1561116757565b60405162461bcd60e51b8152602060048201526012602482015271125b9cdd59999a58da595b9d081d985d5b1d60721b6044820152606490fd5b156111a857565b60405162461bcd60e51b815260206004820152600c60248201526b13585c9ad95d08195b99195960a21b6044820152606490fd5b156111e357565b60405162461bcd60e51b815260206004820152600860248201526709ccacac8408aa8960c31b6044820152606490fd5b1561121a57565b60405162461bcd60e51b815260206004820152600c60248201526b4e6f206c697175696469747960a01b6044820152606490fd5b1561125557565b60405162461bcd60e51b8152602060048201526013602482015272125b9cdd59999a58da595b9d081bdd5d1c1d5d606a1b6044820152606490fd5b60045490811515806112e6575b6112a690611213565b6112d16112ca6112c3600554936112bd8587610e19565b95610e6b565b8094610e40565b8092610e5e565b916112dd83151561124e565b60045560055590565b50600554151561129d565b6004549081151580611332575b61130790611213565b6112d161132b6113246005549361131e8587610e19565b94610e6b565b8093610e40565b8093610e5e565b5060055415156112fe56fea2646970667358221220ae81fe3f371b178a94b0b19a19790764f45342f6babc49cb77580cbb62c663e664736f6c634300081b0033ccdee9db8c345dd53026f5dedbf3e8b723ceddd2ad8eeb96b00ce37fddd58b64a26469706673582212204201609bdf99b00b5187af9aa7c5991bce937846f8782503a5ca7bcfdb4c560864736f6c634300081b0033","linkReferences":{}},"methodIdentifiers":{"createManualEvent(string,string,(string,uint256,uint256,uint256)[])":"74e950da","events(uint256)":"0b791430","getAllEventsWithMarkets()":"a162ef95","getEvent(uint256)":"6d1884e0","getEventMarkets(uint256)":"cdaac862","getEventWithMarkets(uint256)":"4c1ed064","getMarket(uint256)":"eb44fdd3","markets(uint256)":"b1283e77","maxFeePercentage()":"bf654aac","nextEventId()":"9f9d903a","nextMarketId()":"406ef2ef","owner()":"8da5cb5b","protocolFeePaymentAddress()":"71d18938","renounceOwnership()":"715018a6","setMaxFeePercentage(uint256)":"a66cd094","setProtocolFeePaymentAddress(address)":"b2ffe3b3","transferOwnership(address)":"f2fde38b"},"id":20}